:100000000C9467000C94B9040C94E0040C9407055C
:100010000C9484000C9484000C9484000C94840050
:100020000C9486000C9484000C9484000C9484003E
:100030000C9484000C9484000C9484000C94840030
:100040000C9484000C9484000C9484000C94840020
:100050000C9484003805440551055E056B05770551
:10006000840591059E05AA05B705C405D105F605C9
:10007000DD05EA05036EDB363D9A9999993DABAAF9
:10008000AA2A3E000000803F072C7AA5BA6CC590D2
:10009000DA3B9365FC8BBC53F810FD3C5692834DC4
:1000A000BD879D3AB63DCBC9BF5BBE73DA0FC93F72
:1000B00005A84CCDB2D44EB93836A9020C50B9912E
:1000C0008688083CA6AAAA2ABE000000803F112408
:1000D0001FBECFE5D8E0DEBFCDBF10E0A0E6B0E0A8
:1000E000E0E3F3E102C005900D92AC38B107D9F717
:1000F00020E0ACE8B0E001C01D92A439B207E1F7FE
:100100000E949D000C9496090C9400001F920F927F
:100110000FB60F9211248F939F9380918C00909132
:100120008D00019690938D0080938C009F918F910C
:100130000F900FBE0F901F901895CF93DF93CDB700
:10014000DEB7A0970FB6F894DEBF0FBECDBF8FB756
:1001500080688FBF21E040E260E88AE00E942E05BF
:100160000E94A70480E197E297BD86BD8F9881B376
:10017000806381BB0E94E6031A8219821C821B8263
:100180001E821D8218861F821A8619861C861B866F
:100190001E861D86188A1F868DE290E09A8B898BB9
:1001A0008AE590E09C8B8B8B60E080E00E944804A5
:1001B00080E690E00E9435040E944404312C212CFA
:1001C00010EE00E4412C512C612C712CC12CD12C4F
:1001D000E12CF12C80918C0090918D008F35910550
:1001E00090F020E030E040E85FE3672D762D852D2C
:1001F000942D0E940906762E672E582E492E1092B5
:100200008D0010928C0020E030E040E752E4672D32
:10021000762D852D942D0E948E08882394F020E061
:1002200030E040E85FE36D2D7C2D8F2D9E2D0E94E8
:100230000906D62EC72EF82EE92E712C612C512CD2
:10024000412C20E030E040E752E46D2D7C2D8F2DD5
:100250009E2D0E948E08882394F020E030E040E834
:100260005FE3632D722D812F902F0E940906362E99
:10027000272E182F092FD12CC12CF12CE12C20E096
:1002800030E040EC51E4632D722D812F902F0E94BD
:100290008E08882324F0312C212C10E000E0879B6D
:1002A00034C120E030E040E752E46D2D7C2D8F2DED
:1002B0009E2D0E949A06232D322D412F502F0E94F1
:1002C000090626EE3CE94CE45DE30E9408066D8BCE
:1002D0007E8B8F8B988F20E030E040E451E40E94C9
:1002E000080620E030E040E751E40E9493082BED3F
:1002F0003FE049E450E40E94930820E030E044E30A
:1003000053E40E949A060E9495064B015C0121E885
:100310003DED4DE55FE30E94930824E133E546E6B9
:100320005BE30E9409060E94750620E030E044E38A
:1003300053E40E9493082BED3FE049E450E40E940F
:100340009A06698F7A8F8B8F9C8F60E070E0CB016B
:100350000E9495066D8F7E8F8F8F98A323EF38E6CE
:100360004FEF5EE3C501B4010E9493089B01AC010D
:1003700060E173E188EC9BE30E9408062D8D3E8DC1
:100380004F8D58A10E949A060E94F70520E030E0A8
:1003900044E353E40E9493082BED3FE049E450E42A
:1003A0000E949A064B015C0120E030E040E451E4F9
:1003B0006D897E898F89988D0E949006882354F0DC
:1003C000A501940160E070E084EB93E40E940806CC
:1003D0004B015C0160E080E00E9448048FE690E001
:1003E0000E94350466E080E00E944804632D722D6F
:1003F000812F902F0E940C070E945A0468E080E031
:100400000E94480488E790E00E94350469E080E09B
:100410000E9448046D2D7C2D8F2D9E2D0E940C076F
:100420000E945A046BE080E00E94480488E790E054
:100430000E9435046CE080E00E944804672D762D10
:10044000852D942D0E940C070E945A0460E081E0E3
:100450000E94480484E790E00E94350465E081E052
:100460000E94480420E030E044EB52E4C501B401AE
:100470000E9408069B01AC0160E070E084E393E415
:100480000E9408060E940C079B01772324F4222770
:100490003327261B370B3E8B2D8BB901330F880B6F
:1004A000990B0E945A0469E081E00E9448048AE79F
:1004B00090E00E9435046EE081E00E944804698D5E
:1004C0007A8D8B8D9C8D0E940C074B01772324F431
:1004D00088249924861A970A092C000CAA08BB08BC
:1004E000C501B4010E945A04C501B4010E94440729
:1004F0000E9490042D893E89B901330F880B990B16
:100500000E9444070E94790465CE879963CE898949
:100510009A89069720F485E090E09A8B898B8989E7
:100520009A89843B910520F024EB30E03A8B298BAB
:100530008B899C89069720F485E090E09C8B8B8BBF
:100540008B899C89843B910520F024EB30E03C8B27
:100550002B8B6B897C8980E090E00E9442070E948F
:10056000790469897A8980E090E00E9442070E94BC
:1005700090048FE19EE40197F1F700C0000060E075
:1005800080E00E9448048FE690E00E94350466E017
:1005900080E00E944804632D722D812F902F0E94CD
:1005A0000C070E945A0468E080E00E94480488E733
:1005B00090E00E94350469E080E00E9448046D2DBF
:1005C0007C2D8F2D9E2D0E940C070E945A046BE0FB
:1005D00080E00E94480488E790E00E9435046CE0C7
:1005E00080E00E944804672D762D852D942D0E9471
:1005F0000C070E945A0462E081E00E94480480E8EF
:1006000090E00E94350480E00E94AA049A838983C6
:1006100081E00E94AA049C838B8382E00E94AA044A
:100620009E838D8383E00E94AA0498878F838981AB
:100630009A812F813885821B930B9C0122F42227FB
:100640003327281B390B3A8729878F819885298181
:100650003A81821B930B9C0122F422273327281B0B
:10066000390B388B2F878B819C812D813E81821B9A
:10067000930B9C0122F422273327281B390B3E873A
:100680002D878D819E812B813C81821B930B9C0148
:1006900022F422273327281B390B3C872B87898597
:1006A0009A85C29720F48F859889C29720F1298175
:1006B0003A818F8198858217930758F489899A899E
:1006C00001969A8B898B89EF90E00197F1F700C032
:1006D00000002F81388589819A818217930758F409
:1006E00089899A8901979A8B898B89EF90E0019784
:1006F000F1F700C000008B859C85C29728F48D859A
:100700009E85C29708F466CD2D813E818B819C81A8
:100710008217930758F48B899C8901979C8B8B8B4C
:1007200089EF90E00197F1F700C000002B813C8138
:100730008D819E818217930708F04CCD8B899C890F
:1007400001969C8B8B8B89EF90E00197F1F700C0AD
:10075000000040CDAA98AB9AE9EFF0E03197F1F7AD
:1007600000C0000095B39F7095BB95B3282F207FE4
:10077000922B95BBE9EFF0E03197F1F700C0000054
:10078000AB98E9EFF0E03197F1F700C00000AB9AC9
:10079000E9EFF0E03197F1F700C0000095B39F70EA
:1007A00095BB25B3F0E18F9FC0011124822B85BB3F
:1007B00089EF90E00197F1F700C00000AB98E9EFF6
:1007C000F0E03197F1F700C00000089584B38C6029
:1007D00084BB84B3806F84BB82E00E94AA0388E25A
:1007E0000E94AA038CE00E94AA0381E00E94AA034F
:1007F0000895AA9AAB9AE9EFF0E03197F1F700C0BB
:10080000000095B39F7095BB95B3282F207F922B46
:1008100095BBE9EFF0E03197F1F700C00000AB982D
:10082000E9EFF0E03197F1F700C00000AB9AE9EF93
:10083000F0E03197F1F700C0000095B39F7095BBD1
:1008400025B3F0E18F9FC0011124822B85BB89EF76
:1008500090E00197F1F700C00000AB98E9EFF0E0FD
:100860003197F1F700C000000895CF93DF93EC01BA
:100870008881882331F021960E94F90389918111A2
:10088000FBCFDF91CF91089581E00E94AA030895E4
:10089000813031F050F0823029F0833029F0089512
:1008A000605C03C0605F01C0605B862F80680E944F
:1008B000AA030895CF93DF93CDB7DEB761970FB644
:1008C000F894DEBF0FBECDBFDC01CB014AE0BE0114
:1008D0006F5F7F4F0E946109CE0101960E9435042F
:1008E00061960FB6F894DEBF0FBECDBFDF91CF91FA
:1008F000089520E030E044E353E40E949A0620E0AB
:1009000030E443E854E40E94930820E030E046E9F4
:1009100053E40E9409060E9413077BBD6ABD089537
:1009200020E030E044E353E40E949A0620E030E403
:1009300043E854E40E94930820E030E046E953E4A1
:100940000E9409060E94130779BD68BD08953E9A6A
:10095000379A089597B1907E97B997B1892B87B947
:10096000369A349BFECF84B125B1349A90E0922B15
:1009700008951F920F920FB60F9211242F933F9359
:100980004F935F936F937F938F939F93AF93BF9397
:10099000EF93FF93E0918E00F0918F000995FF9106
:1009A000EF91BF91AF919F918F917F916F915F91E7
:1009B0004F913F912F910F900FBE0F901F90189560
:1009C0001F920F920FB60F9211242F933F934F93C4
:1009D0005F936F937F938F939F93AF93BF93EF93A7
:1009E000FF93E0919000F09191000995FF91EF91B4
:1009F000BF91AF919F918F917F916F915F914F9137
:100A00003F912F910F900FBE0F901F9018951F923E
:100A10000F920FB60F9211242F933F934F935F9332
:100A20006F937F938F939F93AF93BF93EF93FF93B6
:100A3000E0919200F09193000995FF91EF91BF91A1
:100A4000AF919F918F917F916F915F914F913F9166
:100A50002F910F900FBE0F901F90189590E080314E
:100A6000910508F0C3C0FC01E65DFF4F0C945B09E3
:100A70008FB5482B642B6FBD8EB58064282B2EBD9F
:100A800089B7886089BF08958FB58160482B642B32
:100A90006FBD8EB58064282B2EBD89B7886089BF55
:100AA00008958FB58260482B642B6FBD8EB580642E
:100AB000282B2EBD89B7886089BF08958FB58360C4
:100AC000482B642B6FBD8EB58064282B2EBD89B753
:100AD000886089BF08958FB5482B642B6FBD8EB594
:100AE0008864282B2EBD89B7886089BF08958FB58B
:100AF0008160482B642B6FBD8EB58864282B2EBD7A
:100B000089B7886089BF08958FB58260482B642BB0
:100B10006FBD8EB58864282B2EBD89B7886089BFCC
:100B200008958FB58360482B642B6FBD8EB58864A4
:100B3000282B2EBD89B7886089BF08958FB5482BB3
:100B4000642B6FBD8EB58065282B2EBD89B788605C
:100B500089BF08958FB58160482B642B6FBD8EB51A
:100B60008065282B2EBD89B7886089BF08958FB511
:100B70008260482B642B6FBD8EB58065282B2EBDFF
:100B800089B7886089BF08958FB58360482B642B2F
:100B90006FBD8EB58065282B2EBD89B7886089BF53
:100BA00008958FB5482B642B6FBD8EB58865282BB3
:100BB0002EBD89B7886089BF08958FB58260482BA4
:100BC000642B6FBD8EB58865282B2EBD89B78860D4
:100BD00089BF08958FB58360482B642B6FBD8EB598
:100BE0008865282B2EBD89B7886089BF08959F939B
:100BF0009F770E947F070F90002042F49058A2EA4E
:100C00002AED3FE049E450E40E9420060C9440089D
:100C10005058BB27AA270E9420060C9440080E9427
:100C2000070838F00E940E0820F039F49F3F19F4AD
:100C300026F40C94C9070EF4E095E7FB0C94C30767
:100C4000E92F0E94650858F3BA17620773078407F3
:100C5000950720F079F4A6F50C9487080EF4E0953A
:100C60000B2EBA2FA02D0B01B90190010C01CA0166
:100C7000A0011124FF27591B99F0593F50F4503E11
:100C800068F11A16F040A22F232F342F4427585F03
:100C9000F3CF469537952795A795F0405395C9F71B
:100CA0007EF41F16BA0B620B730B840BBAF09150D3
:100CB000A1F0FF0FBB1F661F771F881FC2F70EC072
:100CC000BA0F621F731F841F48F487957795679545
:100CD000B795F7959E3F08F0B0CF9395880F08F031
:100CE0009927EE0F9795879508959F939F77EEE349
:100CF00089379E0728F4E4E7F0E00E94F3070CC070
:100D00000E947F079058A2EA2AED3FE049EC5FE39A
:100D10000E9420060E9440080F9007FC90580895FA
:100D20000E949F0708F481E008950E941708E39548
:100D30000C9451080E94AE060C9440080E940E08C4
:100D400058F00E94070840F029F45F3F29F00C9406
:100D5000C30751110C9488080C94C9070E946508B8
:100D600068F39923B1F3552391F3951B550BBB27DA
:100D7000AA2762177307840738F09F5F5F4F220F1F
:100D8000331F441FAA1FA9F335D00E2E3AF0E0E816
:100D900032D091505040E695001CCAF72BD0FE2F60
:100DA00029D0660F771F881FBB1F261737074807F4
:100DB000AB07B0E809F0BB0B802DBF01FF279358AC
:100DC0005F4F3AF09E3F510578F00C94C3070C94A6
:100DD00088085F3FE4F3983ED4F38695779567954E
:100DE000B795F7959F5FC9F7880F911D96958795E1
:100DF00097F90895E1E0660F771F881FBB1F621700
:100E000073078407BA0720F0621B730B840BBA0BBD
:100E1000EE1F88F7E09508950E9413076894B111BA
:100E20000C94880808950E946D0888F09F5798F0E8
:100E3000B92F9927B751B0F0E1F0660F771F881FDF
:100E4000991F1AF0BA95C9F714C0B13091F00E94F9
:100E50008708B1E008950C948708672F782F8827BA
:100E6000B85F39F0B93FCCF3869577956795B39520
:100E7000D9F73EF490958095709561957F4F8F4F8F
:100E80009F4F0895E89409C097FB3EF49095809594
:100E9000709561957F4F8F4F9F4F9923A9F0F92F40
:100EA00096E9BB279395F695879577956795B795BE
:100EB000F111F8CFFAF4BB0F11F460FF1BC06F5FA4
:100EC0007F4F8F4F9F4F16C0882311F096E911C0B6
:100ED000772321F09EE8872F762F05C0662371F0D7
:100EE00096E8862F70E060E02AF09A95660F771FEB
:100EF000881FDAF7880F9695879597F90895DF93FD
:100F0000CF931F930F938B01EC01E8E8F0E00E9470
:100F1000CC070E9440089801AE018B01EC0160E013
:100F200070E080E89FE30E9408060E94060998018D
:100F3000AE010F911F91CF91DF910C94A608990FEC
:100F40000008550FAA0BE0E8FEEF16161706E80793
:100F5000F907C0F012161306E407F50798F0621BB4
:100F6000730B840B950B39F40A2661F0232B242B89
:100F7000252B21F408950A2609F4A140A6958FEFA8
:100F8000811D811D089597F99F6780E870E060E0FA
:100F900008959FEF80EC0895DF93CF931F930F93F5
:100FA000FF92EF92DF927B018C01689406C0DA2EEB
:100FB000EF010E94A608FE01E894A59125913591C4
:100FC00045915591A6F3EF010E942006FE0197017D
:100FD000A801DA9469F7DF90EF90FF900F911F91CD
:100FE000CF91DF9108959F938F937F936F93FF939A
:100FF000EF939B01AC010E949308EF91FF910E9437
:10100000CC072F913F914F915F910C94930800244E
:101010000A941616170618060906089500240A945D
:10102000121613061406050608950C94C9070E94AB
:101030006D08D8F3E894E0E0BB279F57F0F02AED65
:101040003FE049EC06C0EE0FBB0F661F771F881FFD
:1010500028F0B23A62077307840728F0B25A620B8D
:10106000730B840BE3959A9572F7803830F49A9558
:10107000BB0F661F771F881FD2F790480C94480952
:10108000092E0394000C11F4882352F0BB0F40F496
:10109000BF2B11F460FF04C06F5F7F4F8F4F9F4FD6
:1010A0000895EF93E0FF07C0A2EA2AED3FE049EC84
:1010B0005FEB0E9420060E9440080F90039401FC01
:1010C0009058E0EBF0E00C94F30757FD9058440F74
:1010D000551F59F05F3F71F04795880F97FB991F97
:1010E00061F09F3F79F08795089512161306140654
:1010F000551FF2CF4695F1DF08C0161617061806E1
:10110000991FF1CF86957105610508940895E894BB
:10111000BB2766277727CB0197F908950E949F0781
:1011200008F48FEF08950E94A6080C9440080E94CE
:10113000070838F00E940E0820F0952311F00C9457
:10114000C3070C94C90711240C9488080E946508F1
:1011500070F3959FC1F3950F50E0551F629FF0010A
:10116000729FBB27F00DB11D639FAA27F00DB11D23
:10117000AA1F649F6627B00DA11D661F829F2227AC
:10118000B00DA11D621F739FB00DA11D621F839F33
:10119000A00D611D221F749F3327A00D611D231F09
:1011A000849F600D211D822F762F6A2F11249F5757
:1011B00050409AF0F1F088234AF0EE0FFF1FBB1F5A
:1011C000661F771F881F91505040A9F79E3F510519
:1011D00080F00C94C3070C9488085F3FE4F3983EBA
:1011E000D4F3869577956795B795F795E7959F5FC3
:1011F000C1F7FE2B880F911D9695879597F9089555
:1012000019F416F40C94C9070C9446090E946D0851
:10121000B8F39923C9F3B6F39F57550B87FF0E9484
:1012200054090024A0E640EA90018058569597950D
:1012300028F4805C660F771F881F20F02617370779
:10124000480730F4621B730B840B202931294A2B89
:10125000A69517940794202531254A2758F7660F3D
:10126000771F881F20F026173707480730F4620BD6
:10127000730B840B200D311D411DA09581F7B90121
:10128000842F9158880F9695879508959F3F31F048
:10129000915020F4879577956795B795880F911DA4
:1012A0009695879597F9089591505040660F771F4E
:1012B000881FD2F70895EE0FFF1F0590F491E02DDF
:1012C0000994BB274A3031F4992322F4BDE290956A
:1012D00081959F4F0C946D09BB27FB015527AA27C9
:1012E000880F991FAA1FA41710F0A41B83955051B3
:1012F000B9F7A05DAA3308F0A95DA193009779F72B
:10130000B111B1931192CB010C948609DC01FC015F
:10131000672F71917723E1F7329704C07C916D9329
:1013200070836291AE17BF07C8F30895F894FFCF9A
:1013300057656C636F6D6520736861686572004303
:101340004C6B3A00415A6D693A00416C74693A003D
:0C135000436C6F736564206C6F6F70005D
:00000001FF
